:020000040000FA
:10000000C0C80010F9000000FD000000FF00000063
:1000100001010000030100000501000000000000D4
:1000200000000000000000000000000007010000C8
:100030000901000000000000170A0000BD1C0100BB
:100040000F010000AD1D01000F0100000F010000B5
:100050000F010000F5530100115501006156010028
:10006000B15701000F0100000F0100000F01000057
:100070000F0100000F0100000F0100000F01000040
:100080000F0100000F0100000F0100000F01000030
:100090000F0100000F0100000F0100000F01000020
:1000A000655A0100811A00000F0100000F010000D5
:1000B0000F0100000F0100000F0100000F01000000
:1000C0000F0100000F0100000F01000001590100A5
:1000D0000F0100000F0100000F0100000F010000E0
:1000E0000F010000DFF80CD000F00EFA00480047C6
:1000F00041940100C0C8001005480047FEE7FEE734
:10010000FEE7FEE7FEE7FEE7FEE7FEE7FEE7FEE7C7
:10011000E50000002DE9F0410024061B254671F1A1
:10012000000605DA01240027D0EB070067EB010188
:10013000161E73F1000605DA0027D2EB070201252F
:1001400067EB030300F035F986460E4617469C46DA
:10015000AC4204D00025D0EB050E65EB010624B1BE
:100160000020D2EB000760EB030C704631463A46A4
:100170006346BDE8F08140EA01039B0703D009E034
:1001800008C9121F08C0042AFAD203E011F8013B83
:1001900000F8013B521EF9D27047D2B201E000F8DC
:1001A000012B491EFBD270470022F6E710B513461B
:1001B0000A4604461946FFF7F0FF204610BD421ECE
:1001C00012F8013F002BFBD111F8013B02F8013B73
:1001D000002BF9D17047CAB2401E10F8011F8A42A5
:1001E00002D00029F9D100207047421C10F8011BF1
:1001F0000029FBD1801A704730B504460020034621
:1002000000E05B1C934203D2E05CCD5C401BF8D065
:1002100030BD00000FB400B58DB010A909900B904F
:1002200000914FF0FF300A9000200C900548069096
:10023000054807906A4609A80F9900F0FFF80DB02D
:100240005DF814FB59040000770400002DE9FF5FFE
:100250001D464FF0FF3BD5E9014691465F464FF002
:100260000008A9697F1C01988847296A8246884747
:100270000028F6D1BAF1FF3F0CD024F4C064002E60
:1002800019DD600614D5BAF12B0F09D0BAF12D0F84
:100290000ED103E0584604B0BDE8F09F44F48064FA
:1002A000A9697F1C01988847761E8246002E02DDD0
:1002B000BAF1300F03D0B9F1000F26D032E0A969AE
:1002C000761E44F400747F1C019888478246002EF5
:1002D00005DDBAF1780F06D0BAF1580F03D0B9F1A5
:1002E000000F10D01EE0B9F1000F02D0B9F1100FCD
:1002F00018D1A969761E24F400747F1C01988847E0
:100300008246102002E0082000E00A20814609E031
:1003100008FB0908A969761E44F400747F1C019843
:1003200088478246002E05DD4946504600F072F8A7
:100330000028EDDAE96901988847A00502D46FF03A
:100340000100A8E7E00725D1600613D5600502D5B6
:10035000C8F1000000E0404629680A1D2A600968CB
:10036000220501D5087015E0220701D5088011E0AB
:1003700008600FE02868011D29600068210502D58A
:1003800080F8008006E0210702D5A0F8008001E097
:10039000C0F8008038467EE770B5064616F01EFEAF
:1003A000046805460A220021304600F075F82C60EA
:1003B00070BD2DE9F05F0546002092469B468846B9
:1003C0000646814640241BE02846414647462246D1
:1003D00000F0BBF853465A46C01A914110D311465B
:1003E0001846224600F0A2F82D1A67EB01084F4686
:1003F00022460120002100F099F817EB00094E4138
:10040000201EA4F10104DFDC484631462A4643465B
:10041000BDE8F09F3A2800D2303820F02002412A6F
:1004200001D3A2F13700884201D34FF0FF3070476B
:10043000026811441378016018467047D16004497E
:1004400051610449116200211161114600F09CB80C
:100450003104000075050000426842B1016811F8DE
:10046000013B23B1521EC0E900121846704701211A
:10047000C160881E704742685AB1C368016843B9B9
:1004800083688B4205D0491E521CC0E9001200202F
:1004900070474FF0FF3070472DE9F04791460F4607
:1004A00080460446002614F8015B2DB100F05EF88A
:1004B0000068405DC007F6D12B2D02D02D2D18D03D
:1004C000641E4A463946204600F0F4F927B13968DF
:1004D000A14201D1C7F8008071054FF002040BD58D
:1004E0004042002803DD16F079FD0460A007BDE856
:1004F000F08746F48066E4E70028F8DA16F06EFD2F
:1005000004606FF00040F2E7064C074D06E0E0683B
:1005100040F0010394E8070098471034AC42F6D34A
:10052000FFF7E4FDB8B60100F8B60100202A04DBAD
:10053000203A00FA02F1002070479140C2F12003F6
:1005400020FA03F3194390407047202A04DB203A35
:1005500021FA02F00021704721FA02F3D040C2F1E3
:100560002002914008431946704700000048704738
:1005700008B3010010B50446FFF7F8FF0068005DFE
:1005800000F0010010BD00002DE9F34F8BB04FF0DB
:10059000000801F10C000C464FF0010B46460DF12E
:1005A000080A01906269012101989047051E2DD02B
:1005B000252D2CD0216A8847C0B16269012101989C
:1005C0009047216A88470028F7D1411E6269019847
:1005D000904700E0761CA1690B988847216A8847FC
:1005E0000028F7D1E1690B988847DBE7A1690B98F0
:1005F00088470746A84201D1761CD3E7E1690B98EA
:1006000088477F1C02D1B8F1000F6FD046E1002768
:1006100062693D463946019890472A2804D16269AB
:100620000121019890470125DFF884926269012138
:1006300001989047A0F130010A290AD24F45E5DC24
:1006400007EB870100EB4107303FDFD445F0100591
:10065000ECE7E90601D46FF000476C280AD04C287B
:1006600014D0682815D06A280DD074281CD07A2898
:100670001AD01DE062690121019890476C2802D0D0
:1006800045F0040514E045F002050DE045F02005B5
:100690000AE06269012101989047682802D045F07C
:1006A000080505E045F4006562690121019890475D
:1006B000C4E9015765283DD019DC58287AD00CDCF4
:1006C000452837D004DC252826D0412831D131E017
:1006D00046282FD047282CD12CE05B2877D06128E2
:1006E00028D063287CD0642823D15AE0D0E06F283A
:1006F00048D008DC66281DD067281BD0692821D087
:100700006E2816D127E0702845D0732868D0752848
:1007100047D078280DD14DE0A1690B988847054650
:1007200025283FF469AFE1690B9888476D1C3FF4B9
:100730006AAFB3E023466A466FF001000B99AFF34E
:1007400000809EE045F040006060A80723464FF01F
:10075000000236D43EE0E8077FF447AF2068011D71
:1007600021600068290501D506701BE7290701D51E
:10077000068017E7A90703D5F117C0E9006111E763
:1007800006600FE745F040006060A80723464FF081
:10079000080216D41EE040F60E0125EA0100606052
:1007A00016E045F040006060A80723464FF00A02BB
:1007B00007D40FE045F040006060A80708D5234645
:1007C00010226FF001000B99AFF3008059E007E0B1
:1007D000234610226FF001000B99FFF737FD50E020
:1007E0004FF000094F464B46632802D05B2806D0E5
:1007F00040E0E80601D40120A06001273AE06269E8
:100800000121019890475E2805D14FF001096269E6
:10081000494601989047216939B900210A46534653
:1008200043F82120491C0829FADBB0B3216969B9D2
:10083000C11700EBD16253110AEB830122F01F02B2
:10084000821A01200B68904003430B60626901210A
:10085000019890475D28E8D1B9F1000F09D0002038
:10086000514651F82020D24341F82020401C08284E
:10087000F7DB02AB224600976FF001000B99AFF354
:10088000008000280CDA401C08D1BBF1000F05D015
:100890004FF0FF300DB0BDE8F08FFFE74046F9E7BD
:1008A000E90701D108F1010806444FF0000B79E691
:1008B000CCCCCC0C2DE9F05F8246007800271546A1
:1008C0008B460AF10104B946302801D09DB113E0EE
:1008D00014F8010B0127782803D0582801D045B11E
:1008E0000AE00DB1102D07D10027102514F8010BD7
:1008F00002E0082500E00A250026B0460EE005FBD0
:10090000080005FB06F1012701EB10461FFA80F8ED
:10091000B6F5803F00D3B94614F8010B2946FFF71E
:1009200079FD0028EBDABBF1000F05D00FB1641E92
:1009300000E05446CBF80040B9F1000F06D016F0A5
:100940004DFB02210160C81EBDE8F09F48EA064049
:10095000FAE770B58C1810F8015B15F0070301D1A8
:1009600010F8013B2A1106D110F8012B03E010F812
:10097000016B01F8016B5B1EF9D12B0705D4002335
:10098000521E0DD401F8013BFAE710F8013BCB1AD7
:10099000921C03E013F8015B01F8015B521EF9D5CC
:1009A000A142D8D3002070BD72B606B431490A788E
:1009B00002F101020A7006BC704706B42D490A789C
:1009C000A2F101020A704FF00001002A08BF81F372
:1009D000108806BC7047284C284D25604FF0000455
:1009E00084F30988264C4FF001052570254C4FF003
:1009F0008055256062B6FEE730B4224C4FF080553A
:100A0000256030BC704730B41E4C4FF080552560D7
:100A100030BC704700BFEFF3108372B6EFF309806C
:100A2000F8B1A0F1200080E8F00F174C2468206096
:100A300000B5164880475DF804EB154C154D2E782F
:100A40002670114C144E36682660306890E8F00F1E
:100A500000F1200080F309884EF0040E83F3108823
:100A6000704700B519F0EEFD5DF804EBE0E700BF5C
:100A700072B670479C02002020ED00E00000FFFFEE
:100A80004700001004ED00E050000010B1BC000071
:100A90003C0000103D000010580000102DE9F0410E
:100AA00005460E4614461F463A4629462046FFF79D
:100AB00062FB054804600548066008F0B7FC08F0D2
:100AC000C7F8BDE8F0810000C8000010CC0000109D
:100AD0002DE9F04105460E4614461F463A46294682
:100AE0002046FFF748FB054804600548066008F00B
:100AF0009DFC01F065FDBDE8F0810000C80000101C
:100B0000CC00001010B50446012C00DD10BD04EB34
:100B100084000C4901EB40000079012810D111F04C
:100B2000B1F9094951F82410401AB0F5967F07D958
:100B300011F0A8F9044941F8240020460FF09CFF69
:100B400000BFE3E77E9C00104002002010B5024683
:100B5000002018E0002112E0130103EB80030B4496
:100B60000A4CE35C0A4C246804EB8004645C634038
:100B7000074C246804EB800463544B1CD9B204294D
:100B8000EADB431CD8B20428E4DB10BD0AC600101F
:100B9000C8000010FEB500250CF01AFB074600BF88
:100BA0006A4602A9002000F009FE064646B10298F6
:100BB000C0F30720A02803D10298C0B202280AD3AC
:100BC000029880B24AF28001884204D0029880B232
:100BD000491C88427ED10298C5B20298000C41F6A9
:100BE0003402811A904276D00BDCA0F58050A0F13F
:100BF000300068B1012815D002286DD003286CD1CF
:100C0000E4E001296AD0022969D00329F7D10CE276
:100C1000012005EB051101EB8511FB4A114481F818
:100C20004B002EE205EBC50000EB0510F74901EB88
:100C300080019DF80000401E072202FB0010DDF835
:100C400001100160BDF8051081809DF807108171C9
:100C500005EBC50000EB0510EC4901EB800414F82E
:100C6000010B05EB051101EB8511E74A114481F8F1
:100C7000490014F8010B05EB051101EB8511114436
:100C800081F84A0005EB051000EB85101146084479
:100C90002188A0F81B10A1784177E41C05EB051012
:100CA00000EB851011460844218820F81F1FA17809
:100CB0008170E41C14F8010B05EB051101EB8511A3
:100CC000114481F8230014F8010B05EB051101EB29
:100CD000851105E0D6E190E06EE0D1E1EDE099E12B
:100CE000114481F8240005EB051000EB8510114636
:100CF00008442188A0F82510A41C05EB051000EB82
:100D00008510114608442188A0F82710A41C05EB83
:100D1000051000EB8510114608442188A0F8291021
:100D2000A41C05EB051000EB851011460844218832
:100D3000A0F82B10A41C05EB051000EB8510114644
:100D400008442188A0F82D10A41C05EB051000EB29
:100D50008510114608442188A0F82F10A41C05EB2B
:100D6000051000EB8510114608442188A0F83110C9
:100D7000A41C05EB051000EB8510114608442188E2
:100D8000A0F83310A41C05EB051101EB85111144EB
:100D900001F1350011222146FFF7EDF91134284603
:100DA00010F0A6F9012005EB051101EB8511964A1B
:100DB000114481F84C0064E1012005EB051101EBC1
:100DC0008511914A114481F84D005AE19DF80100C6
:100DD00005EB051101EB85118B4A114481F84A009E
:100DE000284610F0A7F9012005EB051101EB85114C
:100DF000854A114481F84E0043E19DF8000000F05F
:100E0000010038B1012005EB051101EB85117E4A87
:100E1000505406E0002005EB051101EB85117A4ADC
:100E200050549DF8000000F0020040B1012005EB95
:100E3000051101EB8511744A1144487007E0002048
:100E400005EB051101EB85116F4A114448709DF8BF
:100E5000000000F0040040B1012005EB051101EB9A
:100E60008511694A1144887007E0002005EB0511DF
:100E700001EB8511644A114488709DF8000000F070
:100E8000080040B1012005EB051101EB85115E4A18
:100E90001144C87007E0002005EB051101EB851136
:100EA000594A1144C870012005EB051101EB851169
:100EB000554A114481F84F00E3E005EBC50000EB13
:100EC0000510534901EB80019DF80000401E0722E8
:100ED00002FB0010DDF801100160BDF805108180F3
:100EE0009DF80710817105EBC50000EB051048491E
:100EF00001EB800414F8010B05EB051101EB8511E2
:100F0000414A114481F8470005EB051000EB8510BC
:100F1000114608442188A0F80510A41C05EB051013
:100F200000EB8510114608442188A0F80710A41C86
:100F300014F8010B05EB051101EB85111144487202
:100F400014F8010B05EB051101EB851111448872B2
:100F500014F8010B05EB051101EB85111144C87262
:100F600005EB051000EB85101146084421888181AE
:100F7000A41C05EB051000EB8510114608442188E0
:100F8000C181A41C05EB051000EB85101146084437
:100F900021880182A41C05EB051000EB8510114689
:100FA000084421884182A41C14F8010B05EB0511AB
:100FB00001EB85111144087505EB051000EB851058
:100FC000114608442188A0F81510A41C05EB051053
:100FD00000EB8510114608442188A0F81710A41CC6
:100FE00005EB051000EB8510114608442188A0F898
:100FF0001910A41C012005EB051101EB851111440A
:1010000081F850003DE00000D8C3001042C5001038
:101010007AC400109DF8010018B1002010F060F9AA
:1010200002E0012010F05CF92BE09DF8000001289F
:1010300004D19DF80100154908701DE09DF80000DD
:10104000022804D19DF801001149087014E09DF8B0
:101050000000032808D19DF801009DF8021040EA25
:1010600001200C49088007E09DF80000042803D106
:101070009DF8010008490870012010F031F900E0E6
:1010800000BF00BF002E7FF48BADFEBDAE0200207E
:10109000AF020020B2020020B002002070B5294843
:1010A0000088C0F5007082B22748264B1B88C11803
:1010B000002014F0CBFE0546224800882844214930
:1010C000088008460088B0F5007F07D34FF4007110
:1010D0001D48FFF769F800201A4908801948008860
:1010E00078B3002428E018490819012101F067FBB2
:1010F00001281FD11449601C085C00F01F00012862
:1011000004D10819012101F0DBFB0AE00E49601C43
:10111000085C00F01F00112803D10819012102F01A
:1011200033F84FF400710848FFF73EF800200549F6
:10113000088005E0601C84B2024800888442D2DB4B
:1011400000BF70BD440100205C0700202DE9F04184
:10115000044600BF40F2BD4060434E4B034440F2A2
:10116000BD406043DFF82CC16044B0F8000419189A
:1011700040F2BD40604363461844B0F80004C0F537
:10118000806082B220460AF059F9074640F2BD401D
:10119000604340490844B0F80014C81981B240F2D5
:1011A000BD4060433B4A1044A0F8001440F2BD40EB
:1011B000604311460844B0F80004B0F5806F07DBC7
:1011C000002140F2BD4060431044A0F8001401E04B
:1011D000002FBFD100BF002500BF40F2BD416143D9
:1011E0002C4A1144481905F057FB012846D140F21A
:1011F000BD406043274A10444119204614F01AFFAD
:1012000040F2BD40604323490144A81C095C40F200
:10121000BD4060431F4A0244E81C105C01EB002003
:101220001FFA80F800260EE040F2BD4060431949E5
:101230000844A9194144415C40F2BD406043154A4D
:1012400010448155761C40F2BD406043114908446A
:10125000B0F80004B042E7D840F2BD406043084413
:10126000B0F80004A0EB080081B240F2BD4060433A
:10127000084A1044A0F80014002500E06D1C40F25C
:10128000BD40604303490844B0F80004A842A4D814
:10129000BDE8F08104930010FEB543A00068019002
:1012A00002A90F2016F0C8FD06461EB99DF80800D9
:1012B000012800D0FEBD4FF47A7015F06FFC0028B5
:1012C00066D022286CD14FF43A7015F067FC00F01C
:1012D000040020B104214FF43A7015F0DFFC072020
:1012E00017F09AFF051E52DD304800882844B0F5FB
:1012F000007F02D900202D490880B5F5007F01D973
:101300004FF400752A4800902A48284A128881180C
:1013100001AB2A46072018F06DFC244800882844B9
:10132000224908800846008888B300242AE0214921
:101330000819022101F043FA012821D11D4904F1C5
:101340002200085C00F01F00012804D108190221C6
:1013500001F0B6FA0BE0174904F12200085C00F036
:101360001F00112803D10819022101F00DFF4FF4CD
:1013700000711048FEF718FF00200C49088005E0B6
:10138000601C84B2094800888442D0DB00BF08E0BA
:10139000002340F668120221072018F0F5FF00E054
:1013A00000BF00BF00BF85E7FFFFFFFF7400001014
:1013B0006C000010C8C1001001460F2202EA117231
:1013C000184B02FB03F0C1F3036243F609535A437F
:1013D00000EB8210C1F3035240F635435A4300EB51
:1013E0004210C1F3034240F271235A4300EB021052
:1013F000C1F3033202EB4203C3EBC21200EBC200A3
:10140000C1F3032202EBC20303EB021200EB8200E2
:10141000C1F3031202EB820200EB420001F00F0263
:10142000104470478096980070B5044600F0A4F808
:1014300010F028FD054605E0052300221146104660
:101440000AF068FC10F01EFD411B0A20B4FBF0F00E
:101450008142F1D300F08AF870BD00000148008895
:10146000704700003E0100200148007870470000EE
:101470003C01002001480078704700003D01002039
:1014800001480078704700004001002010B510F0BE
:1014900027FC4FF4E131002014F0A0FB0A210020CA
:1014A00010F0A6FC0C49002000F06CF808F012FACD
:1014B0000EF05AFA05F064F90EF028FC00F04CF832
:1014C00003F0C6FF04F06CF801217E2006F0A6F8B8
:1014D000012010F03FFA10BD48E8010010B51B488C
:1014E00000785A2818D1002018490870002411E00B
:1014F00008F09FFA64230022114610460AF00AFC05
:1015000008F091FA64230022114610460AF002FC0A
:10151000601CC4B20A2CEBDB10F0B4FC0C49096867
:10152000401A642811D910F0ADFC09490860094837
:10153000007828B901200749087008F07AFA04E019
:1015400000200449087008F06EFA10BD2B0100203D
:101550002C0100202A01002010B50121D42006F022
:101560005DF80021D42006F04BF910BD10B5002124
:10157000D42006F045F910BD10B50121D42006F0A5
:101580003FF910BD2DE9F05F074688460026002F81
:101590007AD18248006840F400508049C439C1F8CB
:1015A000C4007F48406D20F007007D49486508462B
:1015B000406D40F0040048650846806D20F007004B
:1015C00088650846806D40F00400886501207549F3
:1015D00008600020086188600E2048600846C068E6
:1015E00085B20020086001206F490860002505E0F1
:1015F00000206E4A42F82500681C85B2B5F5007FD0
:10160000F6DB0020684948608860C860086148616E
:101610000220086066480068B0FBF8F618241AE05B
:10162000B6FBF4F004FB106098B9B6FBF4F0A0F13F
:10163000010B601EC4B2032094FBF0F0401E00F0CA
:10164000FF0A032094FBF0F0201A401E00F0FF096F
:1016500003E0A01EC4B2002CE2DC00BF012051490F
:1016600008604FEA0A5040EA094040F4404040EA2E
:101670000B004861002008600846006940F0010046
:101680000861192009F08FFE012F7DD143480068C1
:1016900040F480404149C439C1F8C4004048D0F802
:1016A0001C0120F007003E49C1F81C010846D0F893
:1016B0001C0140F00100C1F81C010846D0F82001CF
:1016C00020F00700C1F820010846D0F8200140F0C2
:1016D000010038490860012037490860002008618E
:1016E00088600E2048600846C06885B20020086007
:1016F00001202D490860002505E000202B4A42F812
:101700002500681C85B2B5F5007FF6DB0020264970
:1017100048608860C8600861486102200860244809
:101720000068B0FBF8F618241AE0B6FBF4F004FBEE
:10173000106098B9B6FBF4F0A0F1010B601EC4B2C2
:10174000032094FBF0F0401E00F0FF0A032094FBFE
:10175000F0F0201A401E00F0FF0903E0A01EC4B202
:10176000002CE2DC00BF0120134908604FEA0A5058
:1017700040EA094040F4404040EA0B004861002044
:1017800008600846006900E005E040F0810008615B
:10179000192009F008FEBDE8F09F0000C4C00F400A
:1017A00000C002400040044000C0034000800340ED
:1017B0008802002020C1024000800440FFB503469B
:1017C0000C461546002020608DF80C000BB91C4A11
:1017D00006E0012B01D11B4A02E0002004B0F0BD5D
:1017E00050881688B04228D05688101D00EB061C81
:1017F0009CE8C1108DE8C1105088401C642690FB05
:10180000F6F706FB170050800098206000210FE0DB
:10181000042903DA01A8405C685407E0082904DAC7
:10182000081F02AE305C685400E005E0481CC1B2FD
:101830009DF80C008842EBDC00BF9DF80C00CDE762
:101840008C090020D00F00202DE9FF4107468C466F
:1018500016461C46CDF800C08DF80C4000208DF8CF
:101860000E0001208DF80D0000230FE03CB1601E3A
:10187000C4B216F8018B01A800F8038004E04FF011
:10188000000801A800F80380581CC3B2042BEDDB4C
:1018900000230FE03CB1601EC4B216F8018B02A811
:1018A00000F8038004E04FF0000802A800F803806D
:1018B000581CC3B2042BEDDB6A460FB96E4907E032
:1018C000012F01D16D4903E0002004B0BDE8F08193
:1018D000C86900F00400E8B3086B20F470200863C6
:1018E000086B92F80C8040EA08400863907B01285E
:1018F00004D1086B40F08040086303E0086B20F0DF
:1019000080400863507B012804D1086B40F0004000
:10191000086303E0086B20F0004008631068486328
:1019200092F80480507948EA0028907948EA004803
:10193000D07948EA00658D6392F80880507A48EAC9
:101940000028907A48EA0048D07A48EA0065CD63DA
:10195000212000E002E04860107BB6E7C86900F48F
:101960008060E8B3086C20F470200864086C92F87A
:101970000C8040EA08400864907B012804D1086C80
:1019800040F08040086403E0086C20F08040086468
:10199000507B012804D1086C40F00040086403E04B
:1019A000086C20F0004008641068486492F80480D5
:1019B000507948EA0028907948EA0048D07948EA06
:1019C00000658D6492F80880507A48EA0028907A81
:1019D00048EA0048D07A48EA0065CD64412000E03A
:1019E00002E04860107B70E7C86900F48020E8B32B
:1019F000086D20F470200865086D92F80C8040EAAC
:101A000008400865907B012804D1086D40F08040B3
:101A1000086503E0086D20F080400865507B0128D0
:101A200004D1086D40F00040086503E0086D20F027
:101A3000004008651068486592F80480507948EACB
:101A40000028907948EA0048D07948EA00658D6519
:101A500092F80880507A48EA0028907A48EA0048CC
:101A6000D07A48EA0065CD65812000E002E0486058
:101A7000107B2AE7002028E7004004400080044053
:101A80007FB52B4AD268D1B201F00102002A4DD0B5
:101A9000274AD26902F00102002A47D0244A126A7A
:101AA000D20F8DF80D20224A126AC2F380728DF88F
:101AB0000E201F4A126AC2F303428DF80C201C4A02
:101AC000526A00929DF80E20DAB9194A906AC2B2A1
:101AD0008DF80420030A8DF80530030C8DF80630CC
:101AE000030E8DF80730124AD06AC2B28DF8082072
:101AF000030A8DF80930030C8DF80A30030E8DF8B7
:101B00000B3004220A4B5A600A4A1388121D02EB5A
:101B100003129DE8780078C2064A1288521C64239A
:101B200092FBF3F403FB1422024B1A807FBD0000EA
:101B3000004004408C0900202DE9F04786B0814622
:101B40000E464FF0000A002435E002A803A9CDE9B3
:101B50000010E1B204AB05AA48460BF065FB9DF806
:101B600014009DF80C10884205D19DF810009DF8D6
:101B7000081088421ED09DF81400C0EB00109DF89C
:101B8000101001EB80079DF80C00C0EB00109DF8D1
:101B9000081001EB8008C6EB06104500BD4209D3D2
:101BA000454507D2E1B248460BF02CFB6421B0FB5F
:101BB000F1FA02E0641C0C2CC7D300BF504606B0FB
:101BC000BDE8F08770B5AAB005464FF0FF31080CAC
:101BD000CDE9281028AC342105A8FEF7E5FA2A46FD
:101BE0001DA105A815F0E6F912A808F0C3F805A88C
:101BF000FEF7FBFA0646324605A912A808F0B6FC25
:101C000001A912A808F08CF89DF804009DF81110A5
:101C1000084420709DF807009DF80F10084460707C
:101C20009DF809009DF80D100844A0709DF80C0067
:101C30009DF80A100844E0709DF80E009DF8081009
:101C4000084420719DF810009DF80610084460714A
:101C5000DDE928012AB070BD2F52656368617267A3
:101C60006553797374656D2F2530386C580000000A
:101C70000148806A7047000040670010014890F8F2
:101C80002D007047406700100148006B704700004E
:101C90004067001018B10249D1F836100160704752
:101CA0004067001003484078012800D170470020A9
:101CB000FCE7000040670010014890F82C007047D6
:101CC0004067001000B585B004A809F04DF8012860
:101CD0001BD150480078012820D001A80BF07EFAD3
:101CE0000198FFF76FFFCDE902014B480299C161EE
:101CF000BDF80C1001841C3008F0EAFE01280DD15B
:101D0000444908704449487008E00020414908707F
:101D100000214148816200203F4948703F480078D7
:101D2000012874D101A80BF059FA0198FFF74AFF76
:101D3000CDE9020138480299C161BDF80C10018457
:101D40003748007801280FD136480178324880F8AA
:101D50002D101C3009F076F8012801D132490870A5
:101D600000202E49087052E02D48007802280ED13C
:101D700029482C49096801631C3009F063F80128DF
:101D800001D1294908700020244908703FE0244807
:101D9000007803280FD1204822490968C0F836107E
:101DA0001C3009F04FF8012801D11F4908700020AC
:101DB0001A4908702BE01A480078042811D11648F7
:101DC000184909680163012180F82D101C3009F0C1
:101DD00039F8012801D11449087000200F49087012
:101DE00015E00F480078052811D10B480D49096806
:101DF000C0F83610022180F82D101C3009F022F8AE
:101E0000012801D10849087000200449087005B074
:101E100000BD00004901002040670010460100207D
:101E2000470100207C6700104801002070B504467F
:101E30000D46FFF71DFFA04201D0002070BD00201D
:101E40000B49087004200B4908700B4805600120FD
:101E50000A49087005E0142300221146104609F0D3
:101E600059FF064800780128F5D001480078E5E7D9
:101E700048010020470100207C6700104601002037
:101E800070B504460D46FFF7F3FEA04201D00020D6
:101E900070BD00200C49087005200C4908700C48E2
:101EA0002968016001200B49087005E01423002215
:101EB0001146104609F02EFF064800780128F5D09B
:101EC00001480078E4E700004801002047010020B5
:101ED0007C6700104601002007A017F0CDFB08F03A
:101EE000AFFD07E0FFF7EEFE142300221146104677
:101EF00009F010FFF6E700006361726420746173FB
:101F00006B2073746172742E2E2E0D0A0000000077
:101F100008B530200023034A10210090184603F032
:101F20001FFC08BD2007002010B5A4B004462146C0
:101F3000684604F027FF4822694612A8FEF71BF9FD
:101F400014BB9DF84C0023490978884205D19DF8BF
:101F50004A002149097888423AD020480078401C3C
:101F60001E49087008460078142831DB9DF84C00A3
:101F7000184908709DF84A00174908700020174951
:101F80000870012024B010BD012C21D19DF84C0017
:101F900013490978884205D19DF84A00114909780A
:101FA000884215D010480078401C0F490870084638
:101FB000007814280CDB9DF84C00094908709DF846
:101FC0004A00084908700020074908700120D9E735
:101FD0000020D7E736020020370200203A02002016
:101FE00038020020390200203B02002038B5CA2107
:101FF0001648FEF7D9F86A4600211548006809F02E
:1020000053FBCA2211494FF4806004F0C0FB104812
:10201000006809F009FC0D480088C82804DBCA21C3
:102020000A48FEF7C1F810E000240BE00748801CC6
:10203000005D012804DDCA210448FEF7B5F803E07D
:10204000601C84B2C82CF1DB00BF38BD8C67001067
:10205000000000200BF0BCF805460EE000240AE06A
:10206000204600F0B5F80A2300221146104609F078
:1020700051FE601CC4B2AC42F2DBEFE72DE9F8433D
:10208000002400BF9AE004EBC401C1EB44214E4A96
:1020900002EB410040F2EE31FEF786F86A4600217D
:1020A0004A48006809F000FB04EBC402C2EB44227A
:1020B000454B03EB42014FF4006202EB842290B2E5
:1020C00040F2EE3204F063FB4048006809F0ACFBDC
:1020D00004EBC400C0EB44203B4901EB400504EB9A
:1020E000C400C0EB442001EB400000F57B78A8EB76
:1020F00005001FFA80F90026002705E015F8011BEE
:10210000881986B2781C87B24F45F7DB04EBC40010
:10211000C0EB44202C4931F8100045F65A21884282
:1021200025D104EBC400C0EB4420274901EB40005B
:10213000B0F8EC03B0421AD104EBC400C0EB442069
:1021400001EB40004088B0F57A7F10DC04EBC4025C
:10215000C2EB44220B4603EB4202518804EBC4025B
:10216000C2EB442203EB4202101D06F0E7FB04EB36
:10217000C401C1EB4421144A02EB410040F2EE31AC
:10218000FEF712F86A4600211048006809F08CFA40
:1021900004EBC402C2EB44220B4B03EB42014FF4AD
:1021A000006202EB842290B240F2EE3204F018FB9F
:1021B0000648006809F038FB601CC4B2022CFFF628
:1021C00062AFBDE8F8830000B86A0010000000208C
:1021D00010B504460FF07EF810B101200EF0E6FFB6
:1021E00004F01EFF10B100200EF0E0FF04EB04101D
:1021F00000EB8410E849084490F8480030B1012809
:1022000068D002287ED003287DD13CE1002004EB79
:10221000041101EB8411E04A1144087104EB04102D
:1022200000EB84101146084490F8470078B10FF095
:1022300029FEDA4951F82410401A322807D90FF044
:1022400021FED64941F8240020460EF063FFD44811
:10225000005D01283DD10020D249085504EB04104F
:1022600000EB8410CC49084490F84800401C04EB73
:10227000041101EB8411C84A114481F84800002080
:1022800004EB041101EB8411114481F84B0004EBC1
:10229000041101EB8411114481F84C0004EB04118A
:1022A00001EB8411114481F84D0004EB041101EBA2
:1022B0008411114481F84E000FF0E4FDBA4941F851
:1022C00024000FF0DFFDB94941F8240020460EF04C
:1022D000F1FE1AE1022004EB041101EB8411AE4A75
:1022E000114408710020AE49085504EB041000EBBE
:1022F00084101146084490F84B0090B90FF0C2FDCD
:10230000AA4901E071E0FFE051F82410401A322898
:1023100007D90FF0B7FDA54941F8240020460EF07B
:10232000C9FE0FF0AFFDA04951F82410401A42F643
:10233000E06188420ED920460EF0ECFE02209C4956
:102340000855002004EB041101EB8411924A11445A
:1023500081F8480004EB041000EB84108E49084417
:1023600090F84C0001282CD104EB041000EB8410F1
:10237000084490F84900A8B904EB041000EB84105D
:10238000084490F84800401C04EB041101EB841150
:10239000814A114481F848000FF074FD834941F8E7
:1023A00024000EE020460EF0B5FE022080490855BC
:1023B000002004EB041101EB8411774A114481F8E9
:1023C00048007848005D01280ED1032004EB041179
:1023D00001EB8411704A114481F8480002207449CD
:1023E00008550120734908558FE0012004EB0411C2
:1023F00001EB8411684A114408716D490855694818
:10240000005D012812D104EB041000EB841011468A
:10241000084490F84800401C04EB041101EB8411BF
:10242000114481F8480001206249085504EB04106A
:1024300000EB84105849084490F84700012821D047
:102440000FF020FD594951F82410401AB0F5FA7FD9
:1024500018D920460EF05EFE0FF014FD534941F8E6
:10246000240004EB041000EB84104B49084490F85E
:102470004800401C04EB041101EB8411464A11444E
:1024800081F8480041E0012004EB041101EB8411C4
:10249000414A1144087100204249085504EB0410D8
:1024A00000EB84101146084490F84D0078B90FF005
:1024B000E9FC3A4951F82410401A322807D90FF0A4
:1024C000E1FC364941F8240020460EF023FE04EBDF
:1024D000041000EB84103049084490F84E000128A5
:1024E00008D00FF0CFFC314951F82410401AB0F554
:1024F0007A7F08D9002004EB041101EB8411264AED
:10250000114481F8480000E000BF00BF0FF0BAFCA2
:10251000294951F82410401A642807D90FF0B2FC59
:10252000254941F8240020460EF016FE04EB041065
:1025300000EB84101849084490F84F0090B90FF050
:10254000A1FC1E4951F82410401AB0F57A7F20D919
:10255000012004EB041101EB84110F4A114481F8AE
:10256000460016E0002004EB041101EB84110A4A36
:10257000114481F84F000FF085FC104941F8240008
:10258000002004EB041101EB8411034A114481F88B
:102590004600FEF7FFFA10BDD8C30010C4020020A9
:1025A000A4020020A8020020BC020020B4020020E7
:1025B000A6020020AA020020CC020020D4020020A3
:1025C00010B500240020FEF7C1FA01240AE00FF044
:1025D00059FB0EF003FF08F087FD2046FEF7B6FA20
:1025E000601CC4B20A2CF2DB0FF04CFB0EF0F6FEBE
:1025F0000A20FEF7ABFA10BD00200249087002491C
:1026000008707047410100204301002070B5054665
:102610000C4604EB4410C0EBC00105F14000084437
:10262000D0F81D00401C04EB4411C1EBC10205F1C0
:1026300040011144D1F80D1088421DD9312104EB1D
:102640004410C0EBC00205F14000104480F8E410D3
:1026500004EB4410C0EBC00105F140000844D0F881
:102660000D1004EB4410C0EBC00205F14000104413
:10267000C0F81D10012070BD04EB4410C0EBC00178
:1026800005F140000844007A01281FD104EB4410F2
:10269000C0EBC00105F140000844D0F8191004EB6C
:1026A0004410C0EBC00205F140001044D0F809000E
:1026B00081420BD3002104EB4410C0EBC00205F1B2
:1026C0004000104480F8E4100120D4E704EB4410EB
:1026D000C0EBC00105F140000844007A02281FD178
:1026E00004EB4410C0EBC00105F140000844D0F8F1
:1026F000811004EB4410C0EBC00205F1400010440F
:10270000D0F8090081420BD3002104EB4410C0EB48
:10271000C00205F14000104480F8E4100120AAE74F
:1027200004EB4410C0EBC00105F140000844007AFE
:1027300003281FD104EB4410C0EBC00105F1400099
:102740000844D0F81D1004EB4410C0EBC00205F1A2
:1027500040001044D0F8090081420BD3002104EB63
:102760004410C0EBC00205F14000104480F8E410B2
:10277000012080E7204603F019F901280BD134210C
:1027800004EB4410C0EBC00205F14000104480F897
:10279000E41001206FE7214628460FF079FB01285D
:1027A0000BD1362104EB4410C0EBC00205F1400010
:1027B000104480F8E41001205DE700205BE7F0B5ED
:1027C00089B004460F46202101A8FDF7EDFC012F3A
:1027D00027D12078682802D0002009B0F0BD6078A9
:1027E00000F0800008B10020F7E70026002504E093
:1027F000605D3044C6B2681CC5B2A078C01CA84257
:10280000F6DCA078C01C205CB04201D00020E4E7D8
:10281000A078001D205C162801D00020DDE70120F3
:10282000DBE7022F49D12078682801D00020D4E7C7
:102830003022202101A8FDF7B0FC202201A9601C54
:10284000FDF7DAFC58B101A900200AF083FD20222F
:1028500001A9601CFDF7D0FC08B10020BDE794F889
:102860002100682801D00020B7E794F8220000F08A
:10287000800008B10020B0E70026002506E005F141
:102880002100205C3044C6B2681CC5B294F8230015
:10289000C01CA842F3DC94F823002430205CB04232
:1028A00001D0002099E794F823002530205C1628F9
:1028B00001D0002091E701208FE700208DE7000084
:1028C0002DE9F04FADF50D7D06468B4602208B902D
:1028D0004FF482714AA8FDF767FC4FF0000ABBF184
:1028E000020F00D12136F078317940EA01208C9036
:1028F0008C9816287BD00EDC162879D2DFE800F001
:10290000783952FEFD7878FCFBFAF9F8F7F678F59D
:1029100078F4F3F2F1F040F20312811A904268D099
:1029200014DCD4287BD008DC172879D0182878D07C
:10293000D12877D0D2285BD1ACE2D62873D0A0F2D0
:102940000110002870D00128F5D1C2E106296CD011
:1029500008DC01296AD0022969D0032968D004293A
:10296000E9D1E4E107297DD008297CD0FE29E2D114
:10297000FDE170798DF828017079012805D10DF2FB
:10298000291100200AF0E6FC07E07079022804D142
:102990000DF2291101200AF0DDFC4FF0210A002080
:1029A0008B9007E34AAC0225642D23DB642095FB62
:1029B000F0F0C0B240F0300004F8010B642095FB49
:1029C000F0F100FB1150C5B20A2095FBF0F0C0B247
:1029D00040F0300004F8010B0A2095FBF0F100FBF9
:1029E0001150C0B240F0300004F8010B25E007E2BE
:1029F000DFE277E10A2D1CDB0A2095FBF0F0C0B284
:102A000040F0300004F8010B0A2095FBF0F100FBC8
:102A10001150C0B240F0300004F8010B0DE06AE242
:102A2000F6E104E20CE29AE24AE188E167E16EE154
:102A300075E145F0300004F8010B2E2004F8010B7D
:102A40000725642D23DB642095FBF0F0C0B240F035
:102A5000300004F8010B642095FBF0F100FB1150ED
:102A6000C5B201E073E17AE10A2095FBF0F0C0B253
:102A700040F0300004F8010B0A2095FBF0F100FB58
:102A80001150C0B240F0300004F8010B18E00A2DDC
:102A900012DB0A2095FBF0F0C0B240F0300004F8E1
:102AA000010B0A2095FBF0F100FB1150C0B240F081
:102AB000300004F8010B03E045F0300004F8010B8E
:102AC0002E2004F8010B0125642D30DB642095FBDA
:102AD000F0F0C0B240F0300004F8010B64200EE0CA
:102AE00086E17DE174E16BE1D5E0CAE0C1E0ABE0F5
:102AF00095E089E07DE071E04AE040E037E095FB59
:102B0000F0F100FB1150C5B20A2095FBF0F0C0B205
:102B100040F0300004F8010B0A2095FBF0F100FBB7
:102B20001150C0B240F0300004F8010B18E00A2D3B
:102B300012DB0A2095FBF0F0C0B240F0300004F840
:102B4000010B0A2095FBF0F100FB1150C0B240F0E0
:102B5000300004F8010B03E045F0300004F8010BED
:102B6000002004F8010B4FF0100A8B9022E24AA8D3
:102B70000AF08EFB4FF0100A00208B901AE20AF048
:102B800027FB8DF828014FF0010A00208B9011E2FD
:102B900002A80DF0D7F8BDF8080000128DF82E013C
:102BA000BDF80800C0B28DF82D019DF80A008DF81F
:102BB0002C019DF80B008DF82B019DF80C008DF871
:102BC0002A019DF80D008DF829019DF80E008DF861
:102BD00028014FF0070A00208B90EBE100200AF05B
:102BE000A3FBC0B28DF828014FF0010A00208B90A2
:102BF000E0E106AB07AA4AA9481C0AF0D5FB4FF052
:102C0000020A00208B90D5E14AAB5A1C08A909A8FA
:102C10000AF0CAFB4FF0020A00208B90CAE17079DB
:102C2000012802D0707902280BD170798DF8280123
:102C30007179491EC8B20DF229110AF095FA4FF0C8
:102C4000070A00208B90B5E17079012802D07079D5
:102C500002280BD170798DF828017179491EC8B20C
:102C60000DF229110AF0C0FA4FF0070A00208B90EC
:102C7000A0E14AA80AF0B2FA4FF0040A00208B90B3
:102C800098E1FCA30FCB4D934AAB07C34FF0100A5A
:102C900000208B908EE17079012802D07079022893
:102CA0000DD170798DF828017179491EC8B20DF2E5
:102CB00029110AF061FB4FF0810A00208B9079E125
:102CC0000AF0C0FB8DF828014FF0010A00208B901C
:102CD00070E14AA900200AF07BFB4FF0040A0020B3
:102CE0008B9067E100200AF081FB0590BDF814008D
:102CF000ADF828014FF0020A00208B905AE14AA853
:102D00000AF0E0FA4FF0040A00208B9052E14AA842
:102D10000AF086FB4FF0040A00208B904AE14AA893
:102D20000AF0ACFA4FF0040A00208B9042E14AA866
:102D30000AF004FB4FF0060A00208B903AE14AA803
:102D40000AF01EFA4FF0100A00208B9032E14AA8D8
:102D50000AF02AFA4FF0200A00208B902AE14AA8B4
:102D60000AF018FA4FF0200A00208B9022E1002789
:102D70001FE04AA800EBC700801C4AA901EBC7016D
:102D8000C91CCDE900104AA800EBC70300EBC7003F
:102D9000421C394600200AF047FA394600200AF062
:102DA00031FA04904AA800EBC70104984860781CE7
:102DB000C7B20C2FDDDB4FF0600A00208B90F9E0EA
:102DC0004AA80AF09DFA4FF0040A00208B90F1E027
:102DD0004AA80AF08BFA4FF0100A00208B90E9E025
:102DE0004AA80AF027FB4FF0080A00208B90E1E088
:102DF0004AA80AF057FA4FF0050A00208B90D9E054
:102E00004AA80AF0DBF94FF0200A00208B90D1E0AD
:102E100004F054FAC0B28DF8280104F04FFA001201
:102E20008DF829014FF0020A00208B90C2E004F0D7
:102E300051FA8DF828014FF0010A00208B90B9E07B
:102E40000120914908700020904908700FF01AF88D
:102E5000814605E00A2300221146104608F05AFF79
:102E60000FF010F8A0EB0900B0F5C87F03D2874837
:102E700000780028EED08548007840B100208B9083
:102E80000BF02EF98DF828014FF0010A01E0012026
:102E90008B908FE07079401E022101EBC0107A49BF
:102EA00008700020794908700EF0ECFF814605E0BB
:102EB0000A2300221146104608F02CFF0EF0E2FF14
:102EC000A0EB0900B0F5C87F03D270480078002855
:102ED000EED06E48007858B100208B9070798DF854
:102EE00028010BF003F98DF829014FF0020A01E0E7
:102EF00001208B905EE07079401E032101EBC01031
:102F0000614908700020614908700EF0BBFF8146DE
:102F100005E00A2300221146104608F0FBFE0EF0E1
:102F2000B1FFA0EB0900B0F5C87F03D25748007885
:102F30000028EED05548007870B100208B90707951
:102F40008DF828010BF0C6F80590BDF81400ADF817
:102F500029014FF0030A01E001208B902AE00420B0
:102F6000494908700020494908700EF08BFF8146DE
:102F700005E00A2300221146104608F0CBFE0EF0B1
:102F800081FFA0EB0900B0F5C87F03D23F4800786D
:102F90000028EED03D48007840B100208B900BF027
:102FA000ABF88DF828014FF0010A01E001208B9069
:102FB00000E000BF00BF8B98002869D1BBF1010F72
:102FC00032D10AAC682004F8010B812004F8010B0F
:102FD0000AF1020004F8010BF07804F8010B3079D3
:102FE00004F8010B52464AA92046FDF7C4F85444A0
:102FF0004FF00008002706E00AA8C05D404400F03A
:10300000FF08781CC7B20AF105008742F4DB04F818
:10301000018B162004F8010B0AA8201A82B20AA913
:10302000002012F057FFA9E0BBF1020F49D10AAC12
:10303000682004F8010B214600200AF08BF92034A7
:10304000682004F8010B812004F8010B0AF102004A
:1030500004F8010BF07804F8010B307904F8010B47
:1030600052464AA92046FDF786F854444FF000081E
:10307000002717E0303030303030303030303030F2
:1030800030303031000000004301002042010020B8
:1030900018E00AA907F12100085C404400F0FF088D
:1030A000781CC7B20AF105008742F2DB04F8018BF5
:1030B000162004F8010B0AA8201A81B20AA812F0FF
:1030C000BDFC5BE0BBF1010F26D10AAC682004F81F
:1030D000010BC12004F8010B012004F8010B8B98AF
:1030E00004F8010B4FF00008002706E00AA8C05DB5
:1030F000404400F0FF08781CC7B2042FF6DB04F848
:10310000018B162004F8010B0AA8201A82B20AA922
:10311000002012F0DFFE31E0BBF1020F2ED10AAC2D
:10312000682004F8010B214600200AF013F920342E
:10313000682004F8010BC12004F8010B012004F8F9
:10314000010B8B9804F8010B4FF00008002708E0F2
:103150000AA907F12100085C404400F0FF08781C30
:10316000C7B2042FF4DB04F8018B162004F8010B1E
:103170000AA8201A81B20AA812F060FC01200DF5FD
:103180000D7DBDE8F08F00002DE9F04FF1B0044651
:1031900088464FF0020B02A900200AF0DBF88021DC
:1031A00051A8FDF701F8B8F1020F00D12134E07801
:1031B000217940EA012ABAF1160F6FD00FDCBAF17B
:1031C000160F6CD2DFE80AF06B406B585E6B6B6CCD
:1031D0008C9BB0C1D0DFE56BF5F8F2F1F0EF40F277
:1031E0000311AAEB01008A4575D01ADCBAF1D40F9D
:1031F00072D00CDCBAF1170F6FD0BAF1180F6DD086
:10320000BAF1D10F6BD0BAF1D20F48D1C1E1BAF106
:10321000D60F70D0AAF2011000286DD00128F4D189
:10322000DFE0062869D008DC012867D0022877D0C3
:10323000032876D00428E8D1FDE0072872D00828BA
:1032400071D0FE28E1D10EE1607901280AD1A11DDB
:1032500000200AF037FBA11D01200AF033FB4FF0DC
:10326000000B08E06079022805D1A11D01200AF0B9
:1032700029FB4FF0000B0CE2601D0AF0A1FA4FF0A1
:10328000000B06E26079012802D06079022804D19F
:1032900060790AF013FA4FF0000BFAE13BE1F7E135
:1032A000A07AE17A40EA0120ADF82800607A8DF832
:1032B0002A00207A8DF82B00E0798DF82C00A07977
:1032C0008DF82D0060798DF82E000AA80CF054FDC1
:1032D0004FF0000BDDE18BE08AE121E129E12EE1F5
:1032E000617900200AF0CCFA617901200AF0C8FA6D
:1032F0004FF0000BCDE1A9E16DE0A2E089E00DAB5C
:103300000EAA0FA910A80AF04FF86179A0799DF8CC
:1033100034309DF838200AF02BFB4FF0000BB8E159
:103320007DE082E093E098E00DAB0EAA0FA910A813
:103330000AF03AF86379A2799DF83C109DF84000B4
:103340000AF016FB4FF0000BA3E16079012802D0D0
:103350006079022807D16179491EC8B2A11D0AF01F
:1033600019F94FF0000B94E16079012802D06079DF
:10337000022807D16179491EC8B2A11D0AF0B8F927
:103380004FF0000B85E1601D0AF0A8F94FF0000B2B
:103390007FE1607910B16079012801D100F09CFAD9
:1033A0004FF0000B75E1B0E0A9E0A2E09BE003E084
:1033B000FFE74FF0000B6CE16079012802D06079E3
:1033C000022807D16179491EC8B2A11D0AF0BCFAD2
:1033D0004FF0000B5DE160790AF032FB4FF0000B1B
:1033E00057E1611D00200AF0D9FA4FF0000B50E1BF
:1033F0006079A27940EA022100200AF0E3FA6079BC
:10340000A27940EA022101200AF0DCFA4FF0000B19
:103410003FE1601D0AF0EEF94FF0000B39E1601D4D
:103420000AF0F4FA4FF0000B33E1601D0AF0BAF92C
:103430004FF0000B2DE1601D0AF034FA4FF0000B45
:1034400027E1601D0AF0B8F84FF0000B21E1601D84
:103450000AF0CAF84FF0000B1BE1601D0AF0B8F843
:103460004FF0000B15E1002638E0601D00EBC600B0
:103470008078611D01EBC601C978CDE90010601D9F
:1034800010F8363000EBC6004278314600200AF0D2
:1034900059F9601D00EBC60040680C9031460020D1
:1034A0000C9A0AF037F9601D00EBC6008078611DA8
:1034B00001EBC601C978CDE90010601D10F8363067
:1034C00000EBC6004278314601200AF03BF9314654
:1034D00001200C9A0AF01EF9701CC6B20C2EC4DB37
:1034E0004FF0000BD5E0601D0AF0ACF94FF0000B77
:1034F000CFE0601D0AF09AF94FF0000BC9E0601DA3
:103500000AF092FA4FF0000BC3E0601D0AF064F974
:103510004FF0000BBDE0601D0AF072F88346B8E082
:103520006179A27941EA02200DF01AFF4FF0000BF9
:10353000AFE060790DF038FF4FF0000BA9E0607943
:10354000B14908700020B1490870B14908800120D4
:10355000B04908700020B04908700EF093FC07468F
:1035600005E00A2300221146104608F0D3FBAA48C2
:10357000007828B90EF086FCC01BB0F5C87FF0D3E8
:10358000A548007810B14FF0000B01E04FF0010B9F
:103590007FE000209C490870A0799C4908700020B9
:1035A0009B4908806079401E022101EBC0109949B7
:1035B00008700020984908700EF064FC074605E08A
:1035C0000A2300221146104608F0A4FB9248007816
:1035D00028B90EF057FCC01BB0F5C87FF0D38E4859
:1035E000007810B14FF0000B01E04FF0010B50E0FC
:1035F00000208549087085490870A079E17940EA82
:103600000120834908806079401E032101EBC0102E
:10361000804908700EF036FC074605E00A230022B8
:103620001146104608F076FB7B48007828B90EF06A
:1036300029FCC01BB0F5C87FF0D37748007810B1E3
:103640004FF0000B01E04FF0010B22E0607973496D
:10365000087004206F4908700EF014FC074605E05E
:103660000A2300221146104608F054FB6A480078ED
:1036700028B90EF007FCC01BB0F5C87FF0D3664830
:10368000007810B14FF0000B01E04FF0010B00E0AB
:1036900000BF00BFBBF1000F3DD1B8F1010F17D142
:1036A00011AD682005F8010B912005F8010B0020F1
:1036B00005F8010BF92005F8010B162005F8010BA0
:1036C00011A8281A82B211A9002012F003FC7DE093
:1036D000B8F1020F7AD111AD682005F8010B202254
:1036E00002A92846FCF747FD2035682005F8010BA4
:1036F000912005F8010B002005F8010BF92005F8D1
:10370000010B162005F8010B11A8281A81B211A887
:1037100012F094F95AE0B8F1010F25D111AD6820EB
:1037200005F8010BD12005F8010B012005F8010B6C
:1037300005F801BB4FF00009002606E011A8805DE6
:10374000484400F0FF09701CC6B2042EF6DB05F8F1
:10375000019B162005F8010B11A8281A82B211A9A5
:10376000002012F0B7FB31E0B8F1020F2ED111ADFD
:10377000682005F8010B202202A92846FCF7FBFC73
:103780002035682005F8010BD12005F8010B012038
:1037900005F8010B05F801BB4FF00009002608E011
:1037A00011A906F12100085C484400F0FF09701CD3
:1037B000C6B2042EF4DB05F8019B162005F8010BB8
:1037C00011A8281A81B211A812F038F9BAF10E0F17
:1037D00016D1002301221946184608F09BFA00BFB3
:1037E000BFF34F8F0E48006800F4E0600D490843B6
:1037F000001D0B490860BFF34F8F00BF00BFFEE7FD
:10380000012071B0BDE8F08F3C0100203D01002097
:103810003E01002041010020420100204001002023
:103820000CED00E00000FA052DE9F04104460F46DA
:1038300015461E4633462A4602492046FDF72EF914
:10384000BDE8F08140B001002DE9F04190B007469D
:103850000D46904640216846FCF7A6FC284605EB3D
:10386000D0714910A5EB4101012901D0042D02DAE4
:1038700010B0BDE8F081002407E007EB440004F03D
:1038800007FD0DF80400601CC4B205EBD571B4EB64
:10389000610FF2DB002613E0032096FBF0F100FB42
:1038A0001160401C1DF8061006FB1011601E1DF86B
:1038B0000020101A081A303008F80600701CC6B232
:1038C000601EB042E8DC00BFD2E710B504462046D7
:1038D00008F0F0F910BD000008B52B49012015F0E3
:1038E000FFF84FF480520021012014F0C5FDCA21D9
:1038F0002648FCF759FC6A4600212548006807F075
:10390000D3FECA2221494FF4806002F069FF2048AB
:10391000006807F089FF4FF418711E48FCF744FC5B
:103920006A4600211A48006807F0BEFE4FF418727C
:103930001849002002F054FF1548006807F074FF92
:1039400040F2EE311448FCF72FFC40F2EE31134800
:10395000FCF72AFC6A4600210D48006807F0A4FE27
:1039600040F2EE320C494FF4006002F039FF40F2B1
:10397000EE320A494FF4006002F032FF044800685A
:1039800007F052FF08BD0000CC8200108C670010C9
:103990000000002058680010B86A0010A66E0010E1
:1039A00038B5044604EBC401C1EB4421104A02EBD4
:1039B000410040F2EE31FCF7F7FB6A4600210D486A
:1039C000006807F071FE04EBC402C2EB4422084B0E
:1039D00003EB42014FF4006202EB842290B240F20A
:1039E000EE3202F0FDFE0348006807F01DFF38BD0F
:1039F000B86A00100000002038B5054600240EE02B
:103A0000114850F82400A84207D100210E48CA38B6
:103A100020F81410CA3040F82410601CC4B2642C82
:103A2000EEDB6A4600210948006807F03DFE4FF4CE
:103A300018720549D039002002F0D2FE0348006810
:103A400007F0F2FE38BD00002869001000000020D9
:103A50002DE9F04F8FB004460D4616461F46DDF89F
:103A60006080382101A8FCF79FFB44A101A8199AA6
:103A700013F0A0FA082201A94FF4816013F04FFA65
:103A80006420B4FBF0F100FB1149B4FBF0FA4B46A3
:103A900052463CA101A813F08DFA082201A9D001D9
:103AA00013F03DFA6420B5FBF0F100FB1159B5FBB2
:103AB000F0FA4B46524633A101A813F07BFA0822D4
:103AC00001A94FF4826013F02AFA4FF47A70B6FB22
:103AD000F0F100FB11600A21B0FBF1F94FF47A70AC
:103AE000B6FBF0FA4B46524626A101A813F062FA43
:103AF000082201A94FF4836013F011FA0A20B7FBE2
:103B0000F0F100FB1179B7FBF0FA4B4652461FA1CA
:103B100001A813F04FFA082201A94FF4846013F0B2
:103B2000FEF94FF46160B8FBF0F100FB11803C211D
:103B3000B0FBF1F201FB12094FF46160B8FBF0F148
:103B400000FB11803C21B0FBF1FA4FF46160B8FB3F
:103B5000F0FB53465A460FA101A8CDF8009013F090
:103B600029FA202201A94FF4896013F0D8F9152011
:103B700013F0B2F90FB0BDE8F08F000025303264C9
:103B80002525000025642E253032640025642E256D
:103B900064000000253032643A253032643A253022
:103BA000326400002DE9F04F93B004460D461646EE
:103BB0001F46DDE91EABDDF88890DDF87080382106
:103BC00005A8FCF7F1FA95A105A81D9A13F0F2F9E2
:103BD000082205A94FF4816013F0A1F96420B4FB19
:103BE000F0F100FB114004906420B4FBF0F003906E
:103BF00002468CA105A8049B13F0DCF9082205A954
:103C0000D00113F08CF96420B5FBF0F100FB1150EA
:103C100004906420B5FBF0F00390024681A105A852
:103C2000049B13F0C7F9082205A94FF4826013F032
:103C300076F94FF47A70B6FBF0F100FB11600A21BF
:103C4000B0FBF1F004904FF47A70B6FBF0F0039003
:103C5000024674A105A8049B13F0ACF9082205A93B
:103C60004FF4836013F05BF90A20B7FBF0F100FB1F
:103C7000117004900A20B7FBF0F0039002466BA18C
:103C800005A8049B13F096F9082205A94FF4846057
:103C900013F045F94FF46160B8FBF0F100FB1180BF
:103CA0003C21B0FBF1F201FB120004904FF4616083
:103CB000B8FBF0F100FB11803C21B0FBF1F0039068
:103CC0004FF46160B8FBF0F002900498009059A1A5
:103CD00005A8DDE9022313F06DF9202205A94FF4B0
:103CE000896013F01CF94DA105A8239A13F062F91D
:103CF000082205A94FF4A16013F011F96420BAFB62
:103D0000F0F100FB11A004906420BAFBF0F00390E6
:103D1000024644A105A8049B13F04CF9082205A90A
:103D20004FF4A06013F0FBF86420BBFBF0F100FB44
:103D300011B004906420BBFBF0F00390024639A15F
:103D400005A8049B13F036F9082205A94FF4A260D8
:103D500013F0E5F84FF47A712098B0FBF1F201FB13
:103D600012000A21B0FBF1F004904FF47A71209810
:103D7000B0FBF1F0039002462AA105A8049B13F0C2
:103D800019F9082205A94FF4A36013F0C8F80A2115
:103D90002198B0FBF1F201FB120004902198B0FBD6
:103DA000F1F00390024621A105A8049B13F002F94B
:103DB000082205A94FF4A46013F0B1F84FF4616034
:103DC000B9FBF0F100FB11903C21B0FBF1F201FBDB
:103DD000120004904FF46160B9FBF0F100FB119008
:103DE0003C21B0FBF1F003904FF46160B9FBF0F0BF
:103DF0000290049800900FA105A8DDE9022313F0BA
:103E0000D9F8202205A94FF4A96013F088F80920F9
:103E100013F062F813B0BDE8F08F00002530326473
:103E20002525000025642E253032640025642E25CA
:103E300064000000253032643A253032643A25307F
:103E4000326400002DE9F04F8FB004460D4616464F
:103E50001F46DDF86080382101A8FCF7A5F94CA1C8
:103E600001A8199A13F0A6F8082201A94FF481605D
:103E700013F055F86420B4FBF0F100FB1149B4FBDA
:103E8000F0FA4B46524644A101A813F093F80822D9
:103E900001A9D00113F043F86420B5FBF0F100FB59
:103EA0001159B5FBF0FA4B4652463BA101A813F05D
:103EB00081F8082201A94FF4826013F030F84FF422
:103EC0007A70B6FBF0F100FB11600A21B0FBF1F94A
:103ED0004FF47A70B6FBF0FA4B4652462EA101A879
:103EE00013F068F8082201A94FF4836013F017F863
:103EF0000A20B7FBF0F100FB1179B7FBF0FA4B4653
:103F0000524627A101A813F055F8082201A94FF441
:103F1000846013F004F84FF46160B8FBF0F100FB2B
:103F200011803C21B0FBF1F201FB12094FF46160FA
:103F3000B8FBF0F100FB11803C21B0FBF1FA4FF42B
:103F40006160B8FBF0FB53465A4617A101A8CDF8B3
:103F5000009013F02FF8202201A94FF4896012F08D
:103F6000DEFF20224FF4B4601B9912F0D8FF8022AC
:103F700090001A9912F0D3FF4FF4AD601C9912F023
:103F80008BFF082012F0A8FF0FB0BDE8F08F0000F3
:103F9000253032642525000025642E25303264004A
:103FA00025642E2564000000253032643A25303225
:103FB000643A2530326400002DE9F04F91B0044698
:103FC0000D4616461F46DDE91E9ADDF86880382149
:103FD00003A8FCF7E9F860A103A81B9A12F0EAFF16
:103FE000082203A94FF4816012F099FF6420B4FB0A
:103FF000F0F100FB114BB4FBF0F05B46024658A118
:10400000029003A812F0D6FF082203A9D00112F0F3
:1040100086FF6420B5FBF0F100FB115BB5FBF0F00F
:104020005B4602464EA1029003A812F0C3FF08228D
:1040300003A94FF4826012F072FF4FF47A70B6FB5E
:10404000F0F100FB11600A21B0FBF1FB4FF47A7034
:10405000B6FBF0F05B46024641A1029003A812F0C5
:10406000A9FF082203A94FF4836012F058FF0A2029
:10407000B7FBF0F100FB117BB7FBF0F05B460246AB
:1040800039A1029003A812F095FF082203A94FF46A
:10409000846012F044FF4FF46160B8FBF0F100FB64
:1040A00011803C21B0FBF1F201FB120B4FF4616077
:1040B000B8FBF0F100FB11813C20B1FBF0F0029065
:1040C0004FF46160B8FBF0F0CDE900B0024628A1E2
:1040D00003A8029B12F06EFF202203A94FF489600F
:1040E00012F01DFF40224FF4A5601D9912F017FF3A
:1040F00020224FF4B0601C9912F011FF6420B9FB2C
:10410000F0F100FB119BB9FBF0F05B46024614A1F5
:10411000029003A812F04EFF082203A94FF4AE60EC
:1041200012F0FDFE6420BAFBF0F100FB11ABBAFB0C
:10413000F0F05B4602460AA1029003A812F03AFF93
:10414000082203A94FF4AF6012F0E9FE072012F035
:10415000C3FE11B0BDE8F08F253032642525000084
:1041600025642E253032640025642E25640000006D
:10417000253032643A253032643A2530326400000A
:104180002DE9FF4F91B0064617461C46DDE91F9A00
:10419000DDF87880219D382103A8FCF705F820225E
:1041A0004FF49460129912F0BAFE8022314600203A
:1041B00012F0B5FE39464FF48D6012F06DFE47A146
:1041C00003A8229A12F0F6FE082203A94FF4A16078
:1041D00012F0A5FE6420B4FBF0F100FB114BB4FB20
:1041E000F0F05B4602463FA1029003A812F0E2FE07
:1041F000082203A94FF4A06012F091FE6420B8FBDE
:10420000F0F100FB118BB8FBF0F05B46024635A1E4
:10421000029003A812F0CEFE082203A94FF4A26078
:1042200012F07DFE4FF47A70B9FBF0F100FB1190B3
:104230000A21B0FBF1FB4FF47A70B9FBF0F05B465A
:10424000024628A1029003A812F0B4FE082203A996
:104250004FF4A36012F063FE0A20BAFBF0F100FBFA
:1042600011ABBAFBF0F05B46024620A1029003A816
:1042700012F0A0FE082203A94FF4A46012F04FFE32
:104280004FF46160B5FBF0F100FB11503C21B0FB35
:10429000F1F201FB120B4FF46161B5FBF1F001FB90
:1042A00010503C21B0FBF1F002904FF46160B5FB7F
:1042B000F0F0CDE900B002460EA103A8029B12F077
:1042C00079FE202203A94FF4A96012F028FE0320F2
:1042D00012F002FE15B0BDE8F08F00002530326408
:1042E0002525000025642E253032640025642E2506
:1042F00064000000253032643A253032643A2530BB
:10430000326400002DE9F04704460F4615461E466C
:10431000DDE90889202239464FF4946012F0FFFD50
:1043200080222146002012F0FAFD29464FF48D60CC
:1043300012F0B2FD202241464FF4B46012F0EFFDBE
:1043400080223146900012F0EAFD49464FF4AD60FC
:1043500012F0A2FD012012F0BFFDBDE8F0870000C1
:104360002DE9F04F8FB00446894615461E46DDE91B
:104370001978382101A8FBF717FF202249464FF48E
:10438000946012F0CCFD80222146002012F0C7FD7F
:1043900029464FF48D6012F07FFD40224FF4A56056
:1043A000189912F0BCFD202231464FF4B06012F093
:1043B000B6FD6420B7FBF0F100FB117AB7FBF0FB10
:1043C00053465A4611A101A812F0F4FD082201A992
:1043D0004FF4AE6012F0A3FD6420B8FBF0F100FBD7
:1043E000118AB8FBF0FB53465A4608A101A812F007
:1043F000E1FD082201A94FF4AF6012F090FD022008
:1044000012F06AFD0FB0BDE8F08F000025642E2584
:104410003032640070B504460E46154620223146FF
:104420004FF4946012F07BFD80222146002012F0B0
:1044300076FD29464FF48D6012F02EFD142012F007
:104440004BFD70BD2DE9FF4F93B0074614461D4646
:10445000DDE922ABDDE92089249E382105A8FBF7A0
:10446000A3FE40224FF48560149912F058FD2022DB
:1044700039464FF4906012F052FD6420B4FBF0F125
:1044800000FB114004906420B4FBF0F0039002465E
:104490005BA105A8049B12F08DFD082205A94FF42D
:1044A0008E6012F03CFD6420B5FBF0F100FB115072
:1044B00004906420B5FBF0F00390024650A105A8DB
:1044C000049B12F077FD082205A94FF48F6012F0CB
:1044D00026FD4DA105A8259A12F06CFD082205A91C
:1044E0004FF4A16012F01BFD6420B8FBF0F100FB5B
:1044F000118004906420B8FBF0F00390024640A1C4
:1045000005A8049B12F056FD082205A94FF4A060EF
:1045100012F005FD6420B9FBF0F100FB119004904E
:104520006420B9FBF0F00390024635A105A8049B76
:1045300012F040FD082205A94FF4A26012F0EFFC32
:104540004FF47A70BAFBF0F100FB11A00A21B0FB26
:10455000F1F004904FF47A70BAFBF0F00390024649
:1045600027A105A8049B12F025FD082205A94FF4F8
:10457000A36012F0D4FC0A20BBFBF0F100FB11B0E9
:1045800004900A20BBFBF0F00390024620A105A88E
:10459000049B12F00FFD082205A94FF4A46012F04D
:1045A000BEFC4FF46160B6FBF0F100FB11603C21F2
:1045B000B0FBF1F201FB120004904FF46160B6FB16
:1045C000F0F100FB11603C21B0FBF1F003904FF4DF
:1045D0006160B6FBF0F00290049800900EA105A86F
:1045E000DDE9022312F0E6FC202205A94FF4A960C0
:1045F00012F095FC052012F06FFC17B0BDE8F08FAB
:1046000025642E25303264002530326425250000D3
:1046100025642E2564000000253032643A253032AE
:10462000643A2530326400002DE9F04F8FB0064621
:104630000F4614461D46DDE91889382101A8FBF70D
:10464000B3FD402239464FF4856012F068FC202209
:1046500031464FF4906012F062FC6420B4FBF0F13C
:1046600000FB114AB4FBF0FB53465A4619A101A8BE
:1046700012F0A0FC082201A94FF48E6012F04FFC4A
:104680006420B5FBF0F100FB115AB5FBF0FB53467B
:104690005A4610A101A812F08DFC082201A94FF47E
:1046A0008F6012F03CFC202249464FF4B46012F0B7
:1046B00036FC80224146900012F031FC4FF4AD6090
:1046C0001A9912F0E9FB042012F006FC0FB0BDE8C5
:1046D000F08F000025642E25303264002DE9F04F64
:1046E0008FB00646894614461D46DDE91A78382102
:1046F00001A8FBF759FD402249464FF4856012F0AE
:104700000EFC202231464FF4906012F008FC642029
:10471000B4FBF0F100FB114AB4FBF0FB53465A46E0
:104720002AA101A812F046FC082201A94FF48E60CC
:1047300012F0F5FB6420B5FBF0F100FB115AB5FB5C
:10474000F0FB53465A4621A101A812F033FC08227F
:1047500001A94FF48F6012F0E2FB40224FF4A560F4
:10476000199912F0DCFB20224FF4B060189912F076
:10477000D6FB6420B7FBF0F100FB117AB7FBF0FB2E
:1047800053465A4611A101A812F014FC082201A9AF
:104790004FF4AE6012F0C3FB6420B8FBF0F100FBF5
:1047A000118AB8FBF0FB53465A4608A101A812F043
:1047B00001FC082201A94FF4AF6012F0B0FB062003
:1047C00012F08AFB0FB0BDE8F08F000025642E25A3
:1047D000303264002DE9F0438FB006460F46144690
:1047E0001D46382101A8FBF7DFFC402239464FF473
:1047F000856012F094FB202231464FF4906012F055
:104800008EFB6420B4FBF0F100FB1148B4FBF0F91F
:1048100043464A4611A101A812F0CCFB082201A987
:104820004FF48E6012F07BFB6420B5FBF0F100FBCF
:104830001158B5FBF0F943464A4608A101A812F009
:10484000B9FB082201A94FF48F6012F068FB162013
:1048500012F042FB0FB0BDE8F083000025642E2566
:10486000303264002DE9F047A4B005460E461746E5
:1048700098462C9C802104A8FBF796FC6420B5FB8D
:10488000F0F100FB1159B5FBF0FA4B4652462CA152
:1048900004A812F08FFB082204A94FF4C06012F0A4
:1048A0003EFB6420B6FBF0F100FB1169B6FBF0FAA9
:1048B0004B46524622A104A812F07CFB082204A910
:1048C0004FF4D46012F02BFB6420B7FBF0F100FB37
:1048D0001179B7FBF0FA4B46524619A104A812F021
:1048E00069FB082204A94FF4C16012F018FB3C20B8
:1048F000B8FBF0F94A4614A104A812F05BFB1022A1
:1049000004A94FF4C26012F00AFB60792179E278C1
:10491000A378CDE90032CDE90210637822780CA1AA
:1049200004A812F047FB202204A94FF4C46012F03F
:10493000F6FA0E2012F0D0FA24B0BDE8F08700009D
:1049400025642E25303264002564204D696E0000F8
:104950003230253032642D253032642D25303264DA
:1049600020253032643A253032643A2530326400F2
:1049700010B50446202221464FF4CE6012F0CFFA43
:104980000F2012F0A9FA10BD10B5044610222146DE
:104990004FF4C86012F0C3FA132012F09DFA10BD54
:1049A00070B504460D4634B9102229464FF4E46030
:1049B00012F0B5FA05E0102229464FF4E66012F035
:1049C000AEFA70BD10B5172012F086FA10BD10B502
:1049D0000A2012F081FA10BD70B504460D4610226F
:1049E00021464FF4D26012F09AFA082229464FF479
:1049F000D56012F094FA70BDF0B5A1B004460D4632
:104A0000207D012804D18BA101A812F0D3FA03E084
:104A10008AA101A812F0CEFA102201A94FF4E06099
:104A200012F07DFA208A0A2190FBF1F201FB1206B6
:104A300090FBF1F733463A4682A101A812F0BAFA88
:104A4000082201A94FF4E26012F069FAB4F82B00D1
:104A50000A2190FBF1F201FB120690FBF1F73346BD
:104A60003A4678A101A812F0A5FA082201A94FF44C
:104A7000E36012F054FA94F82300012804D173A1E2
:104A800001A812F097FA42E094F82300022804D11A
:104A900071A101A812F08EFA39E094F823000328DE
:104AA00004D170A101A812F085FA30E094F8230037
:104AB000042804D16EA101A812F07CFA27E094F832
:104AC0002300052804D16CA101A812F073FA1EE09E
:104AD00094F82300062804D169A101A812F06AFA0B
:104AE00015E094F82300072804D168A101A812F06A
:104AF00061FA0CE094F82300082804D166A101A80B
:104B000012F058FA03E066A101A812F053FA20222D
:104B100001A94FF4EA6012F002FA608AC0F57A60E7
:104B20000A2190FBF1F201FB1206608AC0F57A605F
:104B300090FBF1F733463A4642A101A812F03AFA47
:104B4000082201A94FF4EE6012F0E9F9B4F82F0041
:104B50000A2190FBF1F201FB120690FBF1F73346BC
:104B60003A4638A101A812F025FA082201A94FF40B
:104B7000EF6012F0D4F9E07AA0F132024BA101A863
:104B800012F018FA082201A94FF4F06012F0C7F9E8
:104B9000A089642190FBF1F201FB120690FBF1F772
:104BA00033463A4627A101A812F004FA082201A9C7
:104BB0004FF4F16012F0B3F9B4F819203BA101A849
:104BC00012F0F8F9082201A94FF4F66012F0A7F9E3
:104BD000C5F11E0236A101A812F0ECF9022201A9CA
:104BE0004FF4F46012F09BF9B4F82700642190FBB5
:104BF000F1F201FB120690FBF1F733463A4611A1A0
:104C000001A812F0D7F9082201A94FF4E46012F0CC
:104C100086F9D4F81B2028A101A812F0CBF9202294
:104C200001A94FF4E66012F07AF90C2012F054F961
:104C300021B0F0BDBAE3D1B900000000BAE3C1F77A
:104C40000000000025642E2564000000C7A6CBE10B
:104C5000B5E7B3D800000000C4F8C7E2B5E7B3D8A1
:104C600000000000C1D7CBE1CCFAEFAE000000009D
:104C7000C3CCCBE1EFAE0000EEDCCBE1EFAE000049
:104C8000C8FDD4AAB2C4C1CF00000000BEDBBACFB9
:104C9000CEEFEFAE00000000EED1CBE1EFAE0000B2
:104CA000C6E4CBFBB5E7B3D80000000025640000E4
:104CB0002530326400000000253036580000000026
:104CC00010B5112012F008F910BD10B51B2012F01C
:104CD00003F910BD2DE9F04F97B080460F461446FA
:104CE0001E46DDE9209A239D382109A8FBF75CFACE
:104CF000B8F1010F05D13A4656A109A812F05AF9A8
:104D000024E00C2209A9384615F0DEFC9DF82F009E
:104D10009DF82E109DF82D209DF82C30CDE9043201
:104D2000CDE906109DF82B209DF82A009DF829104A
:104D30009DF82830CDE90031CDE902029DF82730F9
:104D40009DF8262045A109A812F034F9E90101F5E2
:104D5000106188B2102209A912F0E1F86079217976
:104D6000E278A378CDE90032CDE9021063782278A9
:104D700040A109A812F01EF9E90101F5116188B2FC
:104D8000202209A912F0CBF84FF46160B6FBF0F1D4
:104D900000FB11603C21B0FBF1F201FB120B4FF460
:104DA0006160B6FBF0F100FB11603C21B0FBF1F05B
:104DB00008904FF46160B6FBF0F0CDF800B00790BA
:104DC000024634A109A8089B12F0F4F8E90101F5A4
:104DD000136188B2202209A912F0A1F86420B9FB5E
:104DE000F0F100FB119BB9FBF0F05B4602462DA1F0
:104DF000089009A812F0DEF8E90101F5156188B202
:104E0000082209A912F08BF86420BAFBF0F100FB2C
:104E100011ABBAFBF0F05B46024622A1089009A84C
:104E200012F0C8F8E90101F6581188B2082209A960
:104E300012F075F81DA109A8229A12F0BBF8E90139
:104E400001F5166188B2082209A912F068F817B0B6
:104E5000BDE8F08F2530356400000000256425642E
:104E600025642564256425642564256425642564FA
:104E700000000000253032642D253032642D2530AD
:104E8000326420253032643A253032643A2530329B
:104E900064000000253032643A253032643A25300F
:104EA0003264000025642E253032640025303258EB
:104EB000000000002DE9F04F97B080460E46914665
:104EC0001C4620AD95E8A00C382109A8FBF76CF929
:104ED000012E05D14A468BA109A812F06BF824E0F7
:104EE0000C2209A9484615F0EFFB9DF82F009DF80C
:104EF0002E109DF82D209DF82C30CDE90432CDE9FF
:104F000006109DF82B109DF82A209DF829009DF889
:104F10002830CDE90030CDE902219DF827309DF8F9
:104F200026207AA109A812F045F8102209A94FF409
:104F3000406011F0F4FF26B97AA109A812F03AF8FE
:104F40000CE0032E04D179A109A812F033F805E092
:104F5000012E03D177A109A812F02CF8102209A97B
:104F60004FF4416011F0DBFF64212498B0FBF1F2B3
:104F700001FB120008902498B0FBF1F00790024664
:104F80006EA109A8089B12F015F8082209A94FF490
:104F9000426011F0C4FF6BA109A8269A12F00AF82A
:104FA000082209A940F6284011F0B9FF65A109A817
:104FB000279A11F0FFFF082209A940F6784011F066
:104FC000AEFF61792279E078A378CDE90030CDE9B0
:104FD0000221637822785DA109A811F0EBFF20225D
:104FE00009A94FF4436011F09AFF4FF46161B7FBD8
:104FF000F1F001FB10703C21B0FBF1F201FB12005B
:1050000008904FF46160B7FBF0F100FB11703C2198
:10501000B0FBF1F007904FF46160B7FBF0F0069041
:105020000898009051A109A8DDE9062311F0C2FFFC
:10503000102209A94FF4456011F071FFB8F1000F7B
:1050400004D14EA109A811F0B5FF03E04DA109A8B4
:1050500011F0B0FF082209A94FF4466011F05FFF7C
:105060006420BAFBF0F100FB11A008906420BAFBA9
:10507000F0F00790024631A109A8089B11F09AFFB1
:10508000082209A940F6684011F049FF3FA109A88C
:10509000259A11F08FFF082209A94FF4476011F0FB
:1050A0003EFF69792A79E878AB78CDE90030CDE91F
:1050B00002216B782A7825A109A811F07BFF202214
:1050C00009A94FF4486011F02AFF6420BBFBF0F1FE
:1050D00000FB11B008906420BBFBF0F00790024683
:1050E00016A109A8089B11F065FF082209A94FF431
:1050F0004A6011F014FF202011F0EEFE17B0BDE859
:10510000F08F000025303564000000002564256420
:105110002564256425642564256425642564256447
:1051200000000000C0EBCFDFBFA80000D4DACFDF63
:10513000BFA80000C6BDCCA80000000025642E2535
:105140003032640025303264252500002530326479
:105150002F253032642F2530326420253032643AD6
:10516000253032643A253032640000002530326444
:105170003A253032643A2530326400004120C7B904
:10518000000000004220C7B900000000253032585E
:105190000000000010B50446E10101F5106188B27D
:1051A000102216A111F0BBFEE10101F5116188B2D8
:1051B000202216A111F0B3FEE10101F5136188B2BE
:1051C000202217A111F0ABFEE10101F5156188B2B3
:1051D000082216A111F0A3FEE10101F6581188B2D0
:1051E000082212A111F09BFEE10101F5166188B2BF
:1051F000082210A111F093FE10BD00002D2D2D2DC1
:105200002D2D2D2D2D2D2D2D000000002D2D2F2D80
:105210002D2F2D2D202D2D2F2D2D2F2D2D0000004C
:105220002D2D3A2D2D3A2D2D000000002D2E2D2D47
:10523000000000002D2D000070B58EB0044638210E
:105240006846FAF7B1FF6420B4FBF0F100FB1145AA
:10525000B4FBF0F62B46324607A1684611F0AAFED1
:10526000082269464FF4D66011F059FE122011F061
:1052700033FE0EB070BD000025642E253032640070
:1052800010B58EB0044638216846FAF78DFF2246E5
:1052900004A1684611F08EFE1A2011F01DFE0EB01A
:1052A00010BD000025303264000000002DE9F041FF
:1052B00092B004460D461646402102A8FAF774FF44
:1052C0002B4622461DA102A8009611F073FE202253
:1052D00002A94FF4E06011F022FE20221BA14FF43E
:1052E000E46011F01CFE07F0E7FF00B308F056F889
:1052F000804607F0E1FF804504D316A102A811F013
:1053000059FE0EE007F0D8FF804608F047F8A8EBFA
:1053100000001821B0FBF1F73A4610A102A811F0E5
:1053200049FE202202A94FF4E46011F0F8FD0020AC
:1053300011F0D2FD12B0BDE8F08100005645523A9E
:1053400025642E25642E25640000000020202020E6
:1053500000000000C7EBBCA4BBEE0000CAB9D3C379
:10536000CAA3D3E02564CCEC0000000010B51D20DA
:1053700011F0B2FD10BD000010B58EB0044638210A
:105380006846FAF711FF224607A1684611F012FE9F
:10539000102269464FF4CA6011F0C1FD102011F0CF
:1053A0009BFD0EB010BD00002530326420000000CF
:1053B00030B58FB004460D46382101A8FAF7F4FE47
:1053C00022460AA101A811F0F5FD082201A94FF417
:1053D000E06011F0A4FD082229464FF4E16011F0CD
:1053E0009EFD212011F078FD0FB030BD25303264D4
:1053F0002525000010B504462022214640F608006D
:1054000011F08DFD192011F067FD10BD70B58EB043
:10541000044638216846FAF7C7FE6420B4FBF0F171
:1054200000FB1145B4FBF0F62B46324606A1684658
:1054300011F0C0FD08226946100211F070FD18201D
:1054400011F04AFD0EB070BD25642E253032640087
:1054500010B54FF4E131012010F0C0FB10BD000089
:1054600070B504460D4613480555002012490855ED
:1054700001201249085505E0642300221146104618
:1054800006F048FC0D48005D0128F5D011E00A48FF
:10549000005D012801D1002070BD0748005D022891
:1054A00001D10120F8E7642300221146104606F0DE
:1054B00031FCECE7AC020020A6020020A402002090
:1054C00070B50446002014490855012013490855B9
:1054D00005E0642300221146104606F01BFC0F482D
:1054E000005D0128F5D00CF0CDFC05460AE00A4825
:1054F000005D012800D10BE0642300221146104614
:1055000006F008FC0CF0BEFC401BB0F57A7FEED331
:1055100000BF012070BD0000AA020020A8020020E8
:1055200010B510224FF0A0531B4C236000231B4CDE
:10553000236005235404C4F88030002110E00023C8
:10554000164C241D236000BF134B083B1B68C3F39C
:105550008063002BF8D04FF080630F4C2360491C10
:105560009142ECD34FF080530B4C236083061B0D0C
:105570000A4C236006234FF40014C4F8803000BFA7
:10558000054B083B1B68C3F30073002BF8D04FF0AA
:105590008053014C236010BDE80F200084002000E0
:1055A00000221A4B1A601A4A11681A4AB1FBF2F229
:1055B000501E4FF40012C2F89400174AB1FBF2F2E9
:1055C000C2EB02124FF47A73B2FBF3F2501C124A90
:1055D000B1FBF2F202EBC203C3EB82124FF47A7317
:1055E000B2FBF3F2521C40EA02200B4AB1FBF2F28A
:1055F000C2EBC20202EB8202B2FBF3F2521C40EA9F
:105600000240024A083A10607047000098002000EB
:1056100084020020D8B8050040420F002DE9F04375
:10562000079F1546164694464FF0A058DFF82C9178
:10563000C9F8008001F03F09804669F39F184FF4D4
:105640000019C9F8848023B94FF00808C9F8808090
:105650001AE0012B0CD14FF009084FF40019C9F8DA
:10566000808000F00108B8F1000F0DD0BDE8F08394
:105670004FF00A084FF40019C9F8808000F00308C1
:10568000B8F1000F00D0F1E7002462E05BB94FF4FD
:105690000018D8F88C8085F800806D1C00F1010896
:1056A0001FFA88F019E0012B0BD14FF40018D8F83D
:1056B0008C80A6F80080B61C00F102081FFA88F062
:1056C0000BE04FF40018D8F88C80CCF800800CF177
:1056D000040C00F104081FFA88F000BFDFF87C809A
:1056E000A8F10808D8F80080C8F38068B8F1000F66
:1056F000F4D04FF08068DFF86490C9F8008040284B
:1057000026DBA7F10108A04522D9002001F10108FC
:105710001FFA88F101F03F09804669F39F184FF4A2
:105720000019C9F8848023B94FF00808C9F88080AF
:105730000EE0012B06D14FF009084FF40019C9F80B
:10574000808005E04FF00A084FF40019C9F8808006
:10575000641CBC429AD300BF88E70000E80F200019
:105760002DE9F043079F1546164694464FF0A05882
:10577000DFF86091C9F80080012B06D100F0010824
:10578000B8F1000F0AD000BFFEE7022B06D100F0EF
:105790000308B8F1000F01D000BFFEE700F03F089A
:1057A0004FF40019C9F8848000248DE07BB94FF0D4
:1057B00003084FF40019C9F8808095F80080C9F8F3
:1057C00088806D1C00F101081FFA88F021E0012B90
:1057D0000FD14FF004084FF40019C9F88080B6F8D3
:1057E0000080C9F88880B61C00F102081FFA88F012
:1057F0000FE04FF005084FF40019C9F88080DCF87D
:105800000080C9F888800CF1040C00F104081FFA2C
:1058100088F000BFDFF8BC80A8F10808D8F8008045
:10582000C8F38068B8F1000FF4D04FF08068DFF85B
:10583000A490C9F80080402802DB4FF0010801E085
:105840004FF00008A7F10109A14502D14FF001096D
:1058500001E04FF0000948EA0908B8F1000F23D031
:105860004FF08058DFF86C90C9F800804FEA8168EB
:105870004FEA18584FF40019C9F884804FF0060811
:10588000C9F8808000BFDFF84C80A8F10808D8F87C
:105890000080C8F30078B8F1000FF4D04FF08058C2
:1058A000DFF83090C9F8008040280CDB002001F1BF
:1058B00001081FFA88F180464FF40019C9F8848066
:1058C0003E2900DD0021641CBC42FFF46FAFBDE83F
:1058D000F0830000E80F20002DE9F04705468846D8
:1058E00016464FF000090024002735B1B8F10C0F1F
:1058F00003DBB8F1C80F00DC16B90020BDE8F08763
:10590000002705E0E85DFE2800D003E0781C87B2A0
:105910004745F7DB00BF3D442046611CCCB2285C04
:10592000682801D00020E9E72819016831608088E3
:10593000B080A01DC4B2285D682801D00020DDE73A
:10594000601CC4B2285DB071601CC4B2285DF071E7
:10595000F079C82801DD0020D0E7601CC4B2F079DE
:1059600080B1002708E02819C05D3338C1B206F1C4
:105970000800C155781C87B2F079B842F3DCF079A1
:105980002044C4B22146284605F0ADFC8146285D7E
:10599000484501D00020B1E7601CC4B2285D16283C
:1059A00001D00020AAE70120A8E700000146022953
:1059B00001DB0020704701EB4100024A02EBC0000E
:1059C000007DF7E75C0900200146022901DB002089
:1059D000704701EB4100024A02EBC000C068F7E7E4
:1059E0005C0900200146022901DB002070470020ED
:1059F000FCE70146022901DB002070470020FCE79C
:105A00000146022901DB0020704701EB4100024AF8
:105A100002EBC0004068F7E75C090020014602295C
:105A200001DB0020704701EB4100024A02EBC0009D
:105A30008068F7E75C0900200146022901DB0020AD
:105A400070470020FCE70146022901DB0020704777
:105A50000020FCE72DE9F05F80468B46164699460C
:105A6000DDE90A750024A246B8F1000F02D00DB19D
:105A70002E2F02DD0020BDE8F09FFE222046611C93
:105A80008CB22A542046611C8CB22A542046611CD8
:105A90008CB22A542046611C8CB22A5468222046BB
:105AA000611C8CB22A542819D8F800100160B8F88B
:105AB00004108180A01D84B22046611C8CB22A543F
:105AC0002046611C8CB205F800B0381DC2B22046D9
:105AD000611C8CB22A5406F13300C2B22046611C0C
